:1000000010C017C016C015C014C013C012C011C054
:1000100010C00FC00EC00DC00CC00BC00AC009C07C
:1000200008C011241FBECFE5D1E0DEBFCDBFC0D0D8
:1000300006C1E6CFCF938BB38F608BBB20E030E05F
:1000400060E470E0E8E0F0E0C22F9AB390789ABBE9
:100050009AB3AB01022E02C0559547950A94E2F778
:10006000942B9ABB80E090E0A9B3AF01082E02C0A8
:10007000559547950A94E2F7B0E04A235B23452B58
:1000800021F463E0D3D08C0F0AC00196843091052F
:1000900059F72F5F3F4F23303105B1F68FEFCF91E6
:1000A0000895FC019081862F80959823908398E392
:1000B0009A95F1F700C0908140FF02C0962B01C0D5
:1000C0009823908398E39A95F1F700C0908141FFBF
:1000D00002C0962B01C09823908398E39A95F1F77C
:1000E00000C0908142FF02C0962B01C098239083EC
:1000F00098E39A95F1F700C0908143FF02C0962BD8
:1001000001C09823908398E39A95F1F700C09081FD
:1001100044FF02C0962B01C09823908398E39A95E0
:10012000F1F700C0908145FF02C0962B01C09823D3
:10013000908398E39A95F1F700C0908146FF02C042
:10014000962B01C09823908398E39A95F1F700C00D
:1001500047FF04C08081862B808303C09081982351
:10016000908388E38A95F1F700C08081862B808395
:1001700098E39A95F1F700C088E38A95F1F700C0FB
:100180000895D69ADE982FE38DE093E021508040C9
:100190009040E1F700C00000DE9A2FE38DE093E08D
:1001A000215080409040E1F700C00000DE980895A3
:1001B00080E886BD16BCD79A3DDF8B3039F441E329
:1001C00060E88BE390E06DDFDCDFF6CF8A3011F47E
:1001D00042E327C0893011F443E323C0883011F48F
:1001E00044E31FC0873011F445E31BC0863011F48F
:1001F00046E317C0853011F447E313C0843011F48F
:1002000048E30FC0833011F449E30BC0823011F48E
:100210004AE207C0813011F440E303C08111CCCF22
:1002200043E260E88BE390E03CDFC6CF002480FD32
:10023000060E660F11F08695D1F7802D0895F8947B
:02024000FFCFEE
:00000001FF
